{
  "_format": "hh-sol-artifact-1",
  "contractName": "LeaseAgreement",
  "sourceName": "contracts/lease.sol",
  "abi": [
    {
      "inputs": [
        {
          "internalType": "string",
          "name": "_name",
          "type": "string"
        },
        {
          "internalType": "string",
          "name": "_symbol",
          "type": "string"
        }
      ],
      "stateMutability": "nonpayable",
      "type": "constructor"
    },
    {
      "anonymous": false,
      "inputs": [
        {
          "indexed": true,
          "internalType": "address",
          "name": "owner",
          "type": "address"
        },
        {
          "indexed": true,
          "internalType": "address",
          "name": "approved",
          "type": "address"
        },
        {
          "indexed": true,
          "internalType": "uint256",
          "name": "tokenId",
          "type": "uint256"
        }
      ],
      "name": "Approval",
      "type": "event"
    },
    {
      "anonymous": false,
      "inputs": [
        {
          "indexed": true,
          "internalType": "address",
          "name": "owner",
          "type": "address"
        },
        {
          "indexed": true,
          "internalType": "address",
          "name": "operator",
          "type": "address"
        },
        {
          "indexed": false,
          "internalType": "bool",
          "name": "approved",
          "type": "bool"
        }
      ],
      "name": "ApprovalForAll",
      "type": "event"
    },
    {
      "anonymous": false,
      "inputs": [
        {
          "indexed": true,
          "internalType": "address",
          "name": "_address",
          "type": "address"
        }
      ],
      "name": "LogNewInvestor",
      "type": "event"
    },
    {
      "anonymous": false,
      "inputs": [
        {
          "indexed": true,
          "internalType": "address",
          "name": "previousOwner",
          "type": "address"
        },
        {
          "indexed": true,
          "internalType": "address",
          "name": "newOwner",
          "type": "address"
        }
      ],
      "name": "OwnershipTransferred",
      "type": "event"
    },
    {
      "anonymous": false,
      "inputs": [
        {
          "indexed": true,
          "internalType": "address",
          "name": "_address",
          "type": "address"
        }
      ],
      "name": "RemovedInvestor",
      "type": "event"
    },
    {
      "anonymous": false,
      "inputs": [
        {
          "indexed": true,
          "internalType": "address",
          "name": "from",
          "type": "address"
        },
        {
          "indexed": true,
          "internalType": "address",
          "name": "to",
          "type": "address"
        },
        {
          "indexed": true,
          "internalType": "uint256",
          "name": "tokenId",
          "type": "uint256"
        }
      ],
      "name": "Transfer",
      "type": "event"
    },
    {
      "anonymous": false,
      "inputs": [
        {
          "indexed": false,
          "internalType": "uint256",
          "name": "newPrice",
          "type": "uint256"
        }
      ],
      "name": "priceChange",
      "type": "event"
    },
    {
      "inputs": [
        {
          "internalType": "address",
          "name": "_address",
          "type": "address"
        }
      ],
      "name": "addInvestor",
      "outputs": [],
      "stateMutability": "nonpayable",
      "type": "function"
    },
    {
      "inputs": [
        {
          "internalType": "address",
          "name": "to",
          "type": "address"
        },
        {
          "internalType": "uint256",
          "name": "tokenId",
          "type": "uint256"
        }
      ],
      "name": "approve",
      "outputs": [],
      "stateMutability": "nonpayable",
      "type": "function"
    },
    {
      "inputs": [
        {
          "internalType": "address",
          "name": "owner",
          "type": "address"
        }
      ],
      "name": "balanceOf",
      "outputs": [
        {
          "internalType": "uint256",
          "name": "",
          "type": "uint256"
        }
      ],
      "stateMutability": "view",
      "type": "function"
    },
    {
      "inputs": [
        {
          "internalType": "uint256",
          "name": "tokenId",
          "type": "uint256"
        }
      ],
      "name": "getApproved",
      "outputs": [
        {
          "internalType": "address",
          "name": "",
          "type": "address"
        }
      ],
      "stateMutability": "view",
      "type": "function"
    },
    {
      "inputs": [
        {
          "internalType": "address",
          "name": "owner",
          "type": "address"
        },
        {
          "internalType": "address",
          "name": "operator",
          "type": "address"
        }
      ],
      "name": "isApprovedForAll",
      "outputs": [
        {
          "internalType": "bool",
          "name": "",
          "type": "bool"
        }
      ],
      "stateMutability": "view",
      "type": "function"
    },
    {
      "inputs": [],
      "name": "maxInvolved",
      "outputs": [
        {
          "internalType": "uint256",
          "name": "",
          "type": "uint256"
        }
      ],
      "stateMutability": "view",
      "type": "function"
    },
    {
      "inputs": [],
      "name": "name",
      "outputs": [
        {
          "internalType": "string",
          "name": "",
          "type": "string"
        }
      ],
      "stateMutability": "view",
      "type": "function"
    },
    {
      "inputs": [],
      "name": "owner",
      "outputs": [
        {
          "internalType": "address",
          "name": "",
          "type": "address"
        }
      ],
      "stateMutability": "view",
      "type": "function"
    },
    {
      "inputs": [
        {
          "internalType": "uint256",
          "name": "tokenId",
          "type": "uint256"
        }
      ],
      "name": "ownerOf",
      "outputs": [
        {
          "internalType": "address",
          "name": "",
          "type": "address"
        }
      ],
      "stateMutability": "view",
      "type": "function"
    },
    {
      "inputs": [
        {
          "internalType": "address",
          "name": "_address",
          "type": "address"
        }
      ],
      "name": "removeInvestor",
      "outputs": [],
      "stateMutability": "nonpayable",
      "type": "function"
    },
    {
      "inputs": [],
      "name": "renounceOwnership",
      "outputs": [],
      "stateMutability": "nonpayable",
      "type": "function"
    },
    {
      "inputs": [
        {
          "internalType": "address",
          "name": "from",
          "type": "address"
        },
        {
          "internalType": "address",
          "name": "to",
          "type": "address"
        },
        {
          "internalType": "uint256",
          "name": "tokenId",
          "type": "uint256"
        }
      ],
      "name": "safeTransferFrom",
      "outputs": [],
      "stateMutability": "nonpayable",
      "type": "function"
    },
    {
      "inputs": [
        {
          "internalType": "address",
          "name": "from",
          "type": "address"
        },
        {
          "internalType": "address",
          "name": "to",
          "type": "address"
        },
        {
          "internalType": "uint256",
          "name": "tokenId",
          "type": "uint256"
        },
        {
          "internalType": "bytes",
          "name": "_data",
          "type": "bytes"
        }
      ],
      "name": "safeTransferFrom",
      "outputs": [],
      "stateMutability": "nonpayable",
      "type": "function"
    },
    {
      "inputs": [
        {
          "internalType": "address",
          "name": "operator",
          "type": "address"
        },
        {
          "internalType": "bool",
          "name": "approved",
          "type": "bool"
        }
      ],
      "name": "setApprovalForAll",
      "outputs": [],
      "stateMutability": "nonpayable",
      "type": "function"
    },
    {
      "inputs": [
        {
          "internalType": "uint256",
          "name": "_price",
          "type": "uint256"
        }
      ],
      "name": "setPrice",
      "outputs": [],
      "stateMutability": "nonpayable",
      "type": "function"
    },
    {
      "inputs": [],
      "name": "sharePrice",
      "outputs": [
        {
          "internalType": "uint256",
          "name": "",
          "type": "uint256"
        }
      ],
      "stateMutability": "view",
      "type": "function"
    },
    {
      "inputs": [
        {
          "internalType": "bytes4",
          "name": "interfaceId",
          "type": "bytes4"
        }
      ],
      "name": "supportsInterface",
      "outputs": [
        {
          "internalType": "bool",
          "name": "",
          "type": "bool"
        }
      ],
      "stateMutability": "view",
      "type": "function"
    },
    {
      "inputs": [],
      "name": "symbol",
      "outputs": [
        {
          "internalType": "string",
          "name": "",
          "type": "string"
        }
      ],
      "stateMutability": "view",
      "type": "function"
    },
    {
      "inputs": [
        {
          "internalType": "uint256",
          "name": "tokenId",
          "type": "uint256"
        }
      ],
      "name": "tokenURI",
      "outputs": [
        {
          "internalType": "string",
          "name": "",
          "type": "string"
        }
      ],
      "stateMutability": "view",
      "type": "function"
    },
    {
      "inputs": [],
      "name": "totalSupply",
      "outputs": [
        {
          "internalType": "uint256",
          "name": "",
          "type": "uint256"
        }
      ],
      "stateMutability": "view",
      "type": "function"
    },
    {
      "inputs": [
        {
          "internalType": "address",
          "name": "from",
          "type": "address"
        },
        {
          "internalType": "address",
          "name": "to",
          "type": "address"
        },
        {
          "internalType": "uint256",
          "name": "tokenId",
          "type": "uint256"
        }
      ],
      "name": "transferFrom",
      "outputs": [],
      "stateMutability": "nonpayable",
      "type": "function"
    },
    {
      "inputs": [
        {
          "internalType": "address",
          "name": "newOwner",
          "type": "address"
        }
      ],
      "name": "transferOwnership",
      "outputs": [],
      "stateMutability": "nonpayable",
      "type": "function"
    }
  ],
  "bytecode": "0x608060405260016009553480156200001657600080fd5b50604051620038853803806200388583398181016040528101906200003c919062000288565b81816200005e620000526200009a60201b60201c565b620000a260201b60201c565b81600190805190602001906200007692919062000166565b5080600290805190602001906200008f92919062000166565b50505050506200042c565b600033905090565b60008060009054906101000a900473ffffffffffffffffffffffffffffffffffffffff169050816000806101000a81548173ffffffffffffffffffffffffffffffffffffffff021916908373ffffffffffffffffffffffffffffffffffffffff1602179055508173ffffffffffffffffffffffffffffffffffffffff168173ffffffffffffffffffffffffffffffffffffffff167f8be0079c531659141344cd1fd0a4f28419497f9722a3daafe3b4186f6b6457e060405160405180910390a35050565b828054620001749062000398565b90600052602060002090601f016020900481019282620001985760008555620001e4565b82601f10620001b357805160ff1916838001178555620001e4565b82800160010185558215620001e4579182015b82811115620001e3578251825591602001919060010190620001c6565b5b509050620001f39190620001f7565b5090565b5b8082111562000212576000816000905550600101620001f8565b5090565b60006200022d62000227846200032f565b620002fb565b9050828152602081018484840111156200024657600080fd5b6200025384828562000362565b509392505050565b600082601f8301126200026d57600080fd5b81516200027f84826020860162000216565b91505092915050565b600080604083850312156200029c57600080fd5b600083015167ffffffffffffffff811115620002b757600080fd5b620002c5858286016200025b565b925050602083015167ffffffffffffffff811115620002e357600080fd5b620002f1858286016200025b565b9150509250929050565b6000604051905081810181811067ffffffffffffffff82111715620003255762000324620003fd565b5b8060405250919050565b600067ffffffffffffffff8211156200034d576200034c620003fd565b5b601f19601f8301169050602081019050919050565b60005b838110156200038257808201518184015260208101905062000365565b8381111562000392576000848401525b50505050565b60006002820490506001821680620003b157607f821691505b60208210811415620003c857620003c7620003ce565b5b50919050565b7f4e487b7100000000000000000000000000000000000000000000000000000000600052602260045260246000fd5b7f4e487b7100000000000000000000000000000000000000000000000000000000600052604160045260246000fd5b613449806200043c6000396000f3fe608060405234801561001057600080fd5b50600436106101425760003560e01c806387269729116100b8578063b88d4fde1161007c578063b88d4fde1461034f578063c87b56dd1461036b578063df6bb9631461039b578063e641bde1146103b9578063e985e9c5146103d5578063f2fde38b1461040557610142565b806387269729146102bd5780638da5cb5b146102db57806391b7f5ed146102f957806395d89b4114610315578063a22cb4651461033357610142565b806323b872dd1161010a57806323b872dd146101ff578063427149781461021b57806342842e0e146102375780636352211e1461025357806370a0823114610283578063715018a6146102b357610142565b806301ffc9a71461014757806306fdde0314610177578063081812fc14610195578063095ea7b3146101c557806318160ddd146101e1575b600080fd5b610161600480360381019061015c9190612395565b610421565b60405161016e9190612d31565b60405180910390f35b61017f610503565b60405161018c9190612d4c565b60405180910390f35b6101af60048036038101906101aa91906123e7565b610595565b6040516101bc9190612cca565b60405180910390f35b6101df60048036038101906101da9190612359565b61061a565b005b6101e9610732565b6040516101f6919061300e565b60405180910390f35b61021960048036038101906102149190612253565b610738565b005b610235600480360381019061023091906121ee565b610798565b005b610251600480360381019061024c9190612253565b610b54565b005b61026d600480360381019061026891906123e7565b610b74565b60405161027a9190612cca565b60405180910390f35b61029d600480360381019061029891906121ee565b610c26565b6040516102aa919061300e565b60405180910390f35b6102bb610cde565b005b6102c5610d66565b6040516102d2919061300e565b60405180910390f35b6102e3610d6c565b6040516102f09190612cca565b60405180910390f35b610313600480360381019061030e91906123e7565b610d95565b005b61031d610e54565b60405161032a9190612d4c565b60405180910390f35b61034d6004803603810190610348919061231d565b610ee6565b005b610369600480360381019061036491906122a2565b611067565b005b610385600480360381019061038091906123e7565b6110c9565b6040516103929190612d4c565b60405180910390f35b6103a3611170565b6040516103b0919061300e565b60405180910390f35b6103d360048036038101906103ce91906121ee565b611175565b005b6103ef60048036038101906103ea9190612217565b6114c8565b6040516103fc9190612d31565b60405180910390f35b61041f600480360381019061041a91906121ee565b61155c565b005b60007f80ac58cd000000000000000000000000000000000000000000000000000000007bffffffffffffffffffffffffffffffffffffffffffffffffffffffff1916827bffffffffffffffffffffffffffffffffffffffffffffffffffffffff191614806104ec57507f5b5e139f000000000000000000000000000000000000000000000000000000007bffffffffffffffffffffffffffffffffffffffffffffffffffffffff1916827bffffffffffffffffffffffffffffffffffffffffffffffffffffffff1916145b806104fc57506104fb82611654565b5b9050919050565b6060600180546105129061323e565b80601f016020809104026020016040519081016040528092919081815260200182805461053e9061323e565b801561058b5780601f106105605761010080835404028352916020019161058b565b820191906000526020600020905b81548152906001019060200180831161056e57829003601f168201915b5050505050905090565b60006105a0826116be565b6105df576040517f08c379a00000000000000000000000000000000000000000000000000000000081526004016105d690612eee565b60405180910390fd5b6005600083815260200190815260200160002060009054906101000a900473ffffffffffffffffffffffffffffffffffffffff169050919050565b600061062582610b74565b90508073ffffffffffffffffffffffffffffffffffffffff168373ffffffffffffffffffffffffffffffffffffffff161415610696576040517f08c379a000000000000000000000000000000000000000000000000000000000815260040161068d90612f6e565b60405180910390fd5b8073ffffffffffffffffffffffffffffffffffffffff166106b561172a565b73ffffffffffffffffffffffffffffffffffffffff1614806106e457506106e3816106de61172a565b6114c8565b5b610723576040517f08c379a000000000000000000000000000000000000000000000000000000000815260040161071a90612e6e565b60405180910390fd5b61072d8383611732565b505050565b60095481565b61074961074361172a565b826117eb565b610788576040517f08c379a000000000000000000000000000000000000000000000000000000000815260040161077f90612f8e565b60405180910390fd5b6107938383836118c9565b505050565b6107a061172a565b73ffffffffffffffffffffffffffffffffffffffff166107be610d6c565b73ffffffffffffffffffffffffffffffffffffffff1614610814576040517f08c379a000000000000000000000000000000000000000000000000000000000815260040161080b90612f0e565b60405180910390fd5b600073ffffffffffffffffffffffffffffffffffffffff168173ffffffffffffffffffffffffffffffffffffffff161415610884576040517f08c379a000000000000000000000000000000000000000000000000000000000815260040161087b90612fae565b60405180910390fd5b6000600880549050116108cc576040517f08c379a00000000000000000000000000000000000000000000000000000000081526004016108c390612fce565b60405180910390fd5b6108d581611b25565b610914576040517f08c379a000000000000000000000000000000000000000000000000000000000815260040161090b90612dae565b60405180910390fd5b6000600760008373ffffffffffffffffffffffffffffffffffffffff1673ffffffffffffffffffffffffffffffffffffffff1681526020019081526020016000206001015490506000600860016008805490506109719190613154565b815481106109a8577f4e487b7100000000000000000000000000000000000000000000000000000000600052603260045260246000fd5b9060005260206000200160009054906101000a900473ffffffffffffffffffffffffffffffffffffffff1690508060088381548110610a10577f4e487b7100000000000000000000000000000000000000000000000000000000600052603260045260246000fd5b9060005260206000200160006101000a81548173ffffffffffffffffffffffffffffffffffffffff021916908373ffffffffffffffffffffffffffffffffffffffff16021790555081600760008373ffffffffffffffffffffffffffffffffffffffff1673ffffffffffffffffffffffffffffffffffffffff168152602001908152602001600020600101819055506008805480610ad7577f4e487b7100000000000000000000000000000000000000000000000000000000600052603160045260246000fd5b6001900381819060005260206000200160006101000a81549073ffffffffffffffffffffffffffffffffffffffff021916905590558273ffffffffffffffffffffffffffffffffffffffff167f24ee917fffe923f5cbaf9746ee4c53401b4cf82e794c88724e8a6946b5302ae560405160405180910390a2505050565b610b6f83838360405180602001604052806000815250611067565b505050565b6000806003600084815260200190815260200160002060009054906101000a900473ffffffffffffffffffffffffffffffffffffffff169050600073ffffffffffffffffffffffffffffffffffffffff168173ffffffffffffffffffffffffffffffffffffffff161415610c1d576040517f08c379a0000000000000000000000000000000000000000000000000000000008152600401610c1490612eae565b60405180910390fd5b80915050919050565b60008073ffffffffffffffffffffffffffffffffffffffff168273ffffffffffffffffffffffffffffffffffffffff161415610c97576040517f08c379a0000000000000000000000000000000000000000000000000000000008152600401610c8e90612e8e565b60405180910390fd5b600460008373ffffffffffffffffffffffffffffffffffffffff1673ffffffffffffffffffffffffffffffffffffffff168152602001908152602001600020549050919050565b610ce661172a565b73ffffffffffffffffffffffffffffffffffffffff16610d04610d6c565b73ffffffffffffffffffffffffffffffffffffffff1614610d5a576040517f08c379a0000000000000000000000000000000000000000000000000000000008152600401610d5190612f0e565b60405180910390fd5b610d646000611c8a565b565b600a5481565b60008060009054906101000a900473ffffffffffffffffffffffffffffffffffffffff16905090565b610d9d61172a565b73ffffffffffffffffffffffffffffffffffffffff16610dbb610d6c565b73ffffffffffffffffffffffffffffffffffffffff1614610e11576040517f08c379a0000000000000000000000000000000000000000000000000000000008152600401610e0890612f0e565b60405180910390fd5b80600a819055507f68ea16a5b1315194f5b4ec6b3b84759f19b2a93da7cc8b4ba0e020ec68868cdb600a54604051610e49919061300e565b60405180910390a150565b606060028054610e639061323e565b80601f0160208091040260200160405190810160405280929190818152602001828054610e8f9061323e565b8015610edc5780601f10610eb157610100808354040283529160200191610edc565b820191906000526020600020905b815481529060010190602001808311610ebf57829003601f168201915b5050505050905090565b610eee61172a565b73ffffffffffffffffffffffffffffffffffffffff168273ffffffffffffffffffffffffffffffffffffffff161415610f5c576040517f08c379a0000000000000000000000000000000000000000000000000000000008152600401610f5390612e0e565b60405180910390fd5b8060066000610f6961172a565b73ffffffffffffffffffffffffffffffffffffffff1673ffffffffffffffffffffffffffffffffffffffff16815260200190815260200160002060008473ffffffffffffffffffffffffffffffffffffffff1673ffffffffffffffffffffffffffffffffffffffff16815260200190815260200160002060006101000a81548160ff0219169083151502179055508173ffffffffffffffffffffffffffffffffffffffff1661101661172a565b73ffffffffffffffffffffffffffffffffffffffff167f17307eab39ab6107e8899845ad3d59bd9653f200f220920489ca2b5937696c318360405161105b9190612d31565b60405180910390a35050565b61107861107261172a565b836117eb565b6110b7576040517f08c379a00000000000000000000000000000000000000000000000000000000081526004016110ae90612f8e565b60405180910390fd5b6110c384848484611d4e565b50505050565b60606110d4826116be565b611113576040517f08c379a000000000000000000000000000000000000000000000000000000000815260040161110a90612f4e565b60405180910390fd5b600061111d611daa565b9050600081511161113d5760405180602001604052806000815250611168565b8061114784611dc1565b604051602001611158929190612ca6565b6040516020818303038152906040525b915050919050565b600481565b61117d61172a565b73ffffffffffffffffffffffffffffffffffffffff1661119b610d6c565b73ffffffffffffffffffffffffffffffffffffffff16146111f1576040517f08c379a00000000000000000000000000000000000000000000000000000000081526004016111e890612f0e565b60405180910390fd5b600073ffffffffffffffffffffffffffffffffffffffff168173ffffffffffffffffffffffffffffffffffffffff161415611261576040517f08c379a000000000000000000000000000000000000000000000000000000000815260040161125890612fee565b60405180910390fd5b6004600880549050106112a9576040517f08c379a00000000000000000000000000000000000000000000000000000000081526004016112a090612ece565b60405180910390fd5b600015156112b682611b25565b1515146112f8576040517f08c379a00000000000000000000000000000000000000000000000000000000081526004016112ef90612e4e565b60405180910390fd5b600880549050600760008373ffffffffffffffffffffffffffffffffffffffff1673ffffffffffffffffffffffffffffffffffffffff168152602001908152602001600020600101819055506008819080600181540180825580915050600190039060005260206000200160009091909190916101000a81548173ffffffffffffffffffffffffffffffffffffffff021916908373ffffffffffffffffffffffffffffffffffffffff1602179055506000600760008373ffffffffffffffffffffffffffffffffffffffff1673ffffffffffffffffffffffffffffffffffffffff16815260200190815260200160002060000154116113f857600061143c565b600760008273ffffffffffffffffffffffffffffffffffffffff1673ffffffffffffffffffffffffffffffffffffffff168152602001908152602001600020600001545b600760008373ffffffffffffffffffffffffffffffffffffffff1673ffffffffffffffffffffffffffffffffffffffff168152602001908152602001600020600001819055508073ffffffffffffffffffffffffffffffffffffffff167fc260d8fa859a4ab3994e7bb6efebb353d1c64b0671a537abdf9102504347c0fa60405160405180910390a250565b6000600660008473ffffffffffffffffffffffffffffffffffffffff1673ffffffffffffffffffffffffffffffffffffffff16815260200190815260200160002060008373ffffffffffffffffffffffffffffffffffffffff1673ffffffffffffffffffffffffffffffffffffffff16815260200190815260200160002060009054906101000a900460ff16905092915050565b61156461172a565b73ffffffffffffffffffffffffffffffffffffffff16611582610d6c565b73ffffffffffffffffffffffffffffffffffffffff16146115d8576040517f08c379a00000000000000000000000000000000000000000000000000000000081526004016115cf90612f0e565b60405180910390fd5b600073ffffffffffffffffffffffffffffffffffffffff168173ffffffffffffffffffffffffffffffffffffffff161415611648576040517f08c379a000000000000000000000000000000000000000000000000000000000815260040161163f90612d8e565b60405180910390fd5b61165181611c8a565b50565b60007f01ffc9a7000000000000000000000000000000000000000000000000000000007bffffffffffffffffffffffffffffffffffffffffffffffffffffffff1916827bffffffffffffffffffffffffffffffffffffffffffffffffffffffff1916149050919050565b60008073ffffffffffffffffffffffffffffffffffffffff166003600084815260200190815260200160002060009054906101000a900473ffffffffffffffffffffffffffffffffffffffff1673ffffffffffffffffffffffffffffffffffffffff1614159050919050565b600033905090565b816005600083815260200190815260200160002060006101000a81548173ffffffffffffffffffffffffffffffffffffffff021916908373ffffffffffffffffffffffffffffffffffffffff160217905550808273ffffffffffffffffffffffffffffffffffffffff166117a583610b74565b73ffffffffffffffffffffffffffffffffffffffff167f8c5be1e5ebec7d5bd14f71427d1e84f3dd0314c0f7b2291e5b200ac8c7c3b92560405160405180910390a45050565b60006117f6826116be565b611835576040517f08c379a000000000000000000000000000000000000000000000000000000000815260040161182c90612e2e565b60405180910390fd5b600061184083610b74565b90508073ffffffffffffffffffffffffffffffffffffffff168473ffffffffffffffffffffffffffffffffffffffff1614806118af57508373ffffffffffffffffffffffffffffffffffffffff1661189784610595565b73ffffffffffffffffffffffffffffffffffffffff16145b806118c057506118bf81856114c8565b5b91505092915050565b8273ffffffffffffffffffffffffffffffffffffffff166118e982610b74565b73ffffffffffffffffffffffffffffffffffffffff161461193f576040517f08c379a000000000000000000000000000000000000000000000000000000000815260040161193690612f2e565b60405180910390fd5b600073ffffffffffffffffffffffffffffffffffffffff168273ffffffffffffffffffffffffffffffffffffffff1614156119af576040517f08c379a00000000000000000000000000000000000000000000000000000000081526004016119a690612dee565b60405180910390fd5b6119ba838383611f6e565b6119c5600082611732565b6001600460008573ffffffffffffffffffffffffffffffffffffffff1673ffffffffffffffffffffffffffffffffffffffff1681526020019081526020016000206000828254611a159190613154565b925050819055506001600460008473ffffffffffffffffffffffffffffffffffffffff1673ffffffffffffffffffffffffffffffffffffffff1681526020019081526020016000206000828254611a6c91906130cd565b92505081905550816003600083815260200190815260200160002060006101000a81548173ffffffffffffffffffffffffffffffffffffffff021916908373ffffffffffffffffffffffffffffffffffffffff160217905550808273ffffffffffffffffffffffffffffffffffffffff168473ffffffffffffffffffffffffffffffffffffffff167fddf252ad1be2c89b69c2b068fc378daa952ba7f163c4a11628f55a4df523b3ef60405160405180910390a4505050565b60008073ffffffffffffffffffffffffffffffffffffffff168273ffffffffffffffffffffffffffffffffffffffff161415611b96576040517f08c379a0000000000000000000000000000000000000000000000000000000008152600401611b8d90612dce565b60405180910390fd5b60006008805490501415611bad5760009050611c85565b8173ffffffffffffffffffffffffffffffffffffffff166008600760008573ffffffffffffffffffffffffffffffffffffffff1673ffffffffffffffffffffffffffffffffffffffff1681526020019081526020016000206001015481548110611c40577f4e487b7100000000000000000000000000000000000000000000000000000000600052603260045260246000fd5b9060005260206000200160009054906101000a900473ffffffffffffffffffffffffffffffffffffffff1673ffffffffffffffffffffffffffffffffffffffff161490505b919050565b60008060009054906101000a900473ffffffffffffffffffffffffffffffffffffffff169050816000806101000a81548173ffffffffffffffffffffffffffffffffffffffff021916908373ffffffffffffffffffffffffffffffffffffffff1602179055508173ffffffffffffffffffffffffffffffffffffffff168173ffffffffffffffffffffffffffffffffffffffff167f8be0079c531659141344cd1fd0a4f28419497f9722a3daafe3b4186f6b6457e060405160405180910390a35050565b611d598484846118c9565b611d6584848484611f73565b611da4576040517f08c379a0000000000000000000000000000000000000000000000000000000008152600401611d9b90612d6e565b60405180910390fd5b50505050565b606060405180602001604052806000815250905090565b60606000821415611e09576040518060400160405280600181526020017f30000000000000000000000000000000000000000000000000000000000000008152509050611f69565b600082905060005b60008214611e3b578080611e2490613270565b915050600a82611e349190613123565b9150611e11565b60008167ffffffffffffffff811115611e7d577f4e487b7100000000000000000000000000000000000000000000000000000000600052604160045260246000fd5b6040519080825280601f01601f191660200182016040528015611eaf5781602001600182028036833780820191505090505b5090505b60008514611f6257600182611ec89190613154565b9150600a85611ed791906132b9565b6030611ee391906130cd565b60f81b818381518110611f1f577f4e487b7100000000000000000000000000000000000000000000000000000000600052603260045260246000fd5b60200101907effffffffffffffffffffffffffffffffffffffffffffffffffffffffffffff1916908160001a905350600a85611f5b9190613123565b9450611eb3565b8093505050505b919050565b505050565b6000611f948473ffffffffffffffffffffffffffffffffffffffff1661210a565b156120fd578373ffffffffffffffffffffffffffffffffffffffff1663150b7a02611fbd61172a565b8786866040518563ffffffff1660e01b8152600401611fdf9493929190612ce5565b602060405180830381600087803b158015611ff957600080fd5b505af192505050801561202a57506040513d601f19601f8201168201806040525081019061202791906123be565b60015b6120ad573d806000811461205a576040519150601f19603f3d011682016040523d82523d6000602084013e61205f565b606091505b506000815114156120a5576040517f08c379a000000000000000000000000000000000000000000000000000000000815260040161209c90612d6e565b60405180910390fd5b805181602001fd5b63150b7a0260e01b7bffffffffffffffffffffffffffffffffffffffffffffffffffffffff1916817bffffffffffffffffffffffffffffffffffffffffffffffffffffffff191614915050612102565b600190505b949350505050565b600080823b905060008111915050919050565b600061213061212b8461305a565b613029565b90508281526020810184848401111561214857600080fd5b6121538482856131fc565b509392505050565b60008135905061216a816133b7565b92915050565b60008135905061217f816133ce565b92915050565b600081359050612194816133e5565b92915050565b6000815190506121a9816133e5565b92915050565b600082601f8301126121c057600080fd5b81356121d084826020860161211d565b91505092915050565b6000813590506121e8816133fc565b92915050565b60006020828403121561220057600080fd5b600061220e8482850161215b565b91505092915050565b6000806040838503121561222a57600080fd5b60006122388582860161215b565b92505060206122498582860161215b565b9150509250929050565b60008060006060848603121561226857600080fd5b60006122768682870161215b565b93505060206122878682870161215b565b9250506040612298868287016121d9565b9150509250925092565b600080600080608085870312156122b857600080fd5b60006122c68782880161215b565b94505060206122d78782880161215b565b93505060406122e8878288016121d9565b925050606085013567ffffffffffffffff81111561230557600080fd5b612311878288016121af565b91505092959194509250565b6000806040838503121561233057600080fd5b600061233e8582860161215b565b925050602061234f85828601612170565b9150509250929050565b6000806040838503121561236c57600080fd5b600061237a8582860161215b565b925050602061238b858286016121d9565b9150509250929050565b6000602082840312156123a757600080fd5b60006123b584828501612185565b91505092915050565b6000602082840312156123d057600080fd5b60006123de8482850161219a565b91505092915050565b6000602082840312156123f957600080fd5b6000612407848285016121d9565b91505092915050565b61241981613188565b82525050565b6124288161319a565b82525050565b60006124398261308a565b61244381856130a0565b935061245381856020860161320b565b61245c816133a6565b840191505092915050565b600061247282613095565b61247c81856130b1565b935061248c81856020860161320b565b612495816133a6565b840191505092915050565b60006124ab82613095565b6124b581856130c2565b93506124c581856020860161320b565b80840191505092915050565b60006124de6032836130b1565b91507f4552433732313a207472616e7366657220746f206e6f6e20455243373231526560008301527f63656976657220696d706c656d656e74657200000000000000000000000000006020830152604082019050919050565b60006125446026836130b1565b91507f4f776e61626c653a206e6577206f776e657220697320746865207a65726f206160008301527f64647265737300000000000000000000000000000000000000000000000000006020830152604082019050919050565b60006125aa6023836130b1565b91507f41646472657373206e6f74207265676973746572656420696e20636f6e74726160008301527f63742e00000000000000000000000000000000000000000000000000000000006020830152604082019050919050565b60006126106024836130b1565b91507f4e756c6c2041646472657373206e6f7420616c6c6f77656420696e20636f6e7460008301527f72616374000000000000000000000000000000000000000000000000000000006020830152604082019050919050565b60006126766024836130b1565b91507f4552433732313a207472616e7366657220746f20746865207a65726f2061646460008301527f72657373000000000000000000000000000000000000000000000000000000006020830152604082019050919050565b60006126dc6019836130b1565b91507f4552433732313a20617070726f766520746f2063616c6c6572000000000000006000830152602082019050919050565b600061271c602c836130b1565b91507f4552433732313a206f70657261746f7220717565727920666f72206e6f6e657860008301527f697374656e7420746f6b656e00000000000000000000000000000000000000006020830152604082019050919050565b60006127826018836130b1565b91507f4164647265737320616c726561647920696e76657374656400000000000000006000830152602082019050919050565b60006127c26038836130b1565b91507f4552433732313a20617070726f76652063616c6c6572206973206e6f74206f7760008301527f6e6572206e6f7220617070726f76656420666f7220616c6c00000000000000006020830152604082019050919050565b6000612828602a836130b1565b91507f4552433732313a2062616c616e636520717565727920666f7220746865207a6560008301527f726f2061646472657373000000000000000000000000000000000000000000006020830152604082019050919050565b600061288e6029836130b1565b91507f4552433732313a206f776e657220717565727920666f72206e6f6e657869737460008301527f656e7420746f6b656e00000000000000000000000000000000000000000000006020830152604082019050919050565b60006128f4601e836130b1565b91507f556e61626c6520746f2061646420616e6f7468657220616464726573732e00006000830152602082019050919050565b6000612934602c836130b1565b91507f4552433732313a20617070726f76656420717565727920666f72206e6f6e657860008301527f697374656e7420746f6b656e00000000000000000000000000000000000000006020830152604082019050919050565b600061299a6020836130b1565b91507f4f776e61626c653a2063616c6c6572206973206e6f7420746865206f776e65726000830152602082019050919050565b60006129da6029836130b1565b91507f4552433732313a207472616e73666572206f6620746f6b656e2074686174206960008301527f73206e6f74206f776e00000000000000000000000000000000000000000000006020830152604082019050919050565b6000612a40602f836130b1565b91507f4552433732314d657461646174613a2055524920717565727920666f72206e6f60008301527f6e6578697374656e7420746f6b656e00000000000000000000000000000000006020830152604082019050919050565b6000612aa66021836130b1565b91507f4552433732313a20617070726f76616c20746f2063757272656e74206f776e6560008301527f72000000000000000000000000000000000000000000000000000000000000006020830152604082019050919050565b6000612b0c6031836130b1565b91507f4552433732313a207472616e736665722063616c6c6572206973206e6f74206f60008301527f776e6572206e6f7220617070726f7665640000000000000000000000000000006020830152604082019050919050565b6000612b726025836130b1565b91507f556e61626c6520746f20696e7465726163742077697468206e756c6c2061646460008301527f726573732e0000000000000000000000000000000000000000000000000000006020830152604082019050919050565b6000612bd86024836130b1565b91507f556e61626c6520746f2072656d6f76652e20436f6e747261637420697320656d60008301527f7074792e000000000000000000000000000000000000000000000000000000006020830152604082019050919050565b6000612c3e602a836130b1565b91507f4e6f742061626c6520746f20616464206e756c6c206164647265737320746f2060008301527f61677265656d656e742e000000000000000000000000000000000000000000006020830152604082019050919050565b612ca0816131f2565b82525050565b6000612cb282856124a0565b9150612cbe82846124a0565b91508190509392505050565b6000602082019050612cdf6000830184612410565b92915050565b6000608082019050612cfa6000830187612410565b612d076020830186612410565b612d146040830185612c97565b8181036060830152612d26818461242e565b905095945050505050565b6000602082019050612d46600083018461241f565b92915050565b60006020820190508181036000830152612d668184612467565b905092915050565b60006020820190508181036000830152612d87816124d1565b9050919050565b60006020820190508181036000830152612da781612537565b9050919050565b60006020820190508181036000830152612dc78161259d565b9050919050565b60006020820190508181036000830152612de781612603565b9050919050565b60006020820190508181036000830152612e0781612669565b9050919050565b60006020820190508181036000830152612e27816126cf565b9050919050565b60006020820190508181036000830152612e478161270f565b9050919050565b60006020820190508181036000830152612e6781612775565b9050919050565b60006020820190508181036000830152612e87816127b5565b9050919050565b60006020820190508181036000830152612ea78161281b565b9050919050565b60006020820190508181036000830152612ec781612881565b9050919050565b60006020820190508181036000830152612ee7816128e7565b9050919050565b60006020820190508181036000830152612f0781612927565b9050919050565b60006020820190508181036000830152612f278161298d565b9050919050565b60006020820190508181036000830152612f47816129cd565b9050919050565b60006020820190508181036000830152612f6781612a33565b9050919050565b60006020820190508181036000830152612f8781612a99565b9050919050565b60006020820190508181036000830152612fa781612aff565b9050919050565b60006020820190508181036000830152612fc781612b65565b9050919050565b60006020820190508181036000830152612fe781612bcb565b9050919050565b6000602082019050818103600083015261300781612c31565b9050919050565b60006020820190506130236000830184612c97565b92915050565b6000604051905081810181811067ffffffffffffffff821117156130505761304f613377565b5b8060405250919050565b600067ffffffffffffffff82111561307557613074613377565b5b601f19601f8301169050602081019050919050565b600081519050919050565b600081519050919050565b600082825260208201905092915050565b600082825260208201905092915050565b600081905092915050565b60006130d8826131f2565b91506130e3836131f2565b9250827fffffffffffffffffffffffffffffffffffffffffffffffffffffffffffffffff03821115613118576131176132ea565b5b828201905092915050565b600061312e826131f2565b9150613139836131f2565b92508261314957613148613319565b5b828204905092915050565b600061315f826131f2565b915061316a836131f2565b92508282101561317d5761317c6132ea565b5b828203905092915050565b6000613193826131d2565b9050919050565b60008115159050919050565b60007fffffffff0000000000000000000000000000000000000000000000000000000082169050919050565b600073ffffffffffffffffffffffffffffffffffffffff82169050919050565b6000819050919050565b82818337600083830152505050565b60005b8381101561322957808201518184015260208101905061320e565b83811115613238576000848401525b50505050565b6000600282049050600182168061325657607f821691505b6020821081141561326a57613269613348565b5b50919050565b600061327b826131f2565b91507fffffffffffffffffffffffffffffffffffffffffffffffffffffffffffffffff8214156132ae576132ad6132ea565b5b600182019050919050565b60006132c4826131f2565b91506132cf836131f2565b9250826132df576132de613319565b5b828206905092915050565b7f4e487b7100000000000000000000000000000000000000000000000000000000600052601160045260246000fd5b7f4e487b7100000000000000000000000000000000000000000000000000000000600052601260045260246000fd5b7f4e487b7100000000000000000000000000000000000000000000000000000000600052602260045260246000fd5b7f4e487b7100000000000000000000000000000000000000000000000000000000600052604160045260246000fd5b6000601f19601f8301169050919050565b6133c081613188565b81146133cb57600080fd5b50565b6133d78161319a565b81146133e257600080fd5b50565b6133ee816131a6565b81146133f957600080fd5b50565b613405816131f2565b811461341057600080fd5b5056fea264697066735822122085b11261cd3c213fcceccd130f667817e55b64e680494b1923081b5d5fd0feb464736f6c63430008000033",
  "linkReferences": {},
  "deployedLinkReferences": {}
}