{
  "_format": "hh-sol-artifact-1",
  "contractName": "testErc20",
  "sourceName": "contracts/myTestErc20.sol",
  "abi": [
    {
      "inputs": [
        {
          "internalType": "string",
          "name": "n",
          "type": "string"
        },
        {
          "internalType": "string",
          "name": "sym",
          "type": "string"
        }
      ],
      "stateMutability": "nonpayable",
      "type": "constructor"
    },
    {
      "anonymous": false,
      "inputs": [
        {
          "indexed": true,
          "internalType": "address",
          "name": "owner",
          "type": "address"
        },
        {
          "indexed": true,
          "internalType": "address",
          "name": "spender",
          "type": "address"
        },
        {
          "indexed": false,
          "internalType": "uint256",
          "name": "value",
          "type": "uint256"
        }
      ],
      "name": "Approval",
      "type": "event"
    },
    {
      "anonymous": false,
      "inputs": [
        {
          "indexed": false,
          "internalType": "address",
          "name": "owner",
          "type": "address"
        },
        {
          "indexed": false,
          "internalType": "address",
          "name": "sender",
          "type": "address"
        },
        {
          "indexed": false,
          "internalType": "uint256",
          "name": "value",
          "type": "uint256"
        }
      ],
      "name": "Approve",
      "type": "event"
    },
    {
      "anonymous": false,
      "inputs": [
        {
          "indexed": true,
          "internalType": "address",
          "name": "previousOwner",
          "type": "address"
        },
        {
          "indexed": true,
          "internalType": "address",
          "name": "newOwner",
          "type": "address"
        }
      ],
      "name": "OwnershipTransferred",
      "type": "event"
    },
    {
      "anonymous": false,
      "inputs": [
        {
          "indexed": true,
          "internalType": "address",
          "name": "from",
          "type": "address"
        },
        {
          "indexed": true,
          "internalType": "address",
          "name": "to",
          "type": "address"
        },
        {
          "indexed": false,
          "internalType": "uint256",
          "name": "value",
          "type": "uint256"
        }
      ],
      "name": "Transfer",
      "type": "event"
    },
    {
      "inputs": [
        {
          "internalType": "address",
          "name": "owningAcc",
          "type": "address"
        },
        {
          "internalType": "address",
          "name": "spendingAcc",
          "type": "address"
        }
      ],
      "name": "allowance",
      "outputs": [
        {
          "internalType": "uint256",
          "name": "",
          "type": "uint256"
        }
      ],
      "stateMutability": "view",
      "type": "function"
    },
    {
      "inputs": [
        {
          "internalType": "address",
          "name": "spender",
          "type": "address"
        },
        {
          "internalType": "uint256",
          "name": "amount",
          "type": "uint256"
        }
      ],
      "name": "approve",
      "outputs": [
        {
          "internalType": "bool",
          "name": "",
          "type": "bool"
        }
      ],
      "stateMutability": "nonpayable",
      "type": "function"
    },
    {
      "inputs": [
        {
          "internalType": "address",
          "name": "_address",
          "type": "address"
        }
      ],
      "name": "balanceOf",
      "outputs": [
        {
          "internalType": "uint256",
          "name": "",
          "type": "uint256"
        }
      ],
      "stateMutability": "view",
      "type": "function"
    },
    {
      "inputs": [],
      "name": "name",
      "outputs": [
        {
          "internalType": "string",
          "name": "",
          "type": "string"
        }
      ],
      "stateMutability": "view",
      "type": "function"
    },
    {
      "inputs": [],
      "name": "owner",
      "outputs": [
        {
          "internalType": "address",
          "name": "",
          "type": "address"
        }
      ],
      "stateMutability": "view",
      "type": "function"
    },
    {
      "inputs": [],
      "name": "renounceOwnership",
      "outputs": [],
      "stateMutability": "nonpayable",
      "type": "function"
    },
    {
      "inputs": [],
      "name": "symbol",
      "outputs": [
        {
          "internalType": "string",
          "name": "",
          "type": "string"
        }
      ],
      "stateMutability": "view",
      "type": "function"
    },
    {
      "inputs": [],
      "name": "totalSupply",
      "outputs": [
        {
          "internalType": "uint256",
          "name": "",
          "type": "uint256"
        }
      ],
      "stateMutability": "view",
      "type": "function"
    },
    {
      "inputs": [
        {
          "internalType": "address",
          "name": "to",
          "type": "address"
        },
        {
          "internalType": "uint256",
          "name": "value",
          "type": "uint256"
        }
      ],
      "name": "transfer",
      "outputs": [
        {
          "internalType": "bool",
          "name": "",
          "type": "bool"
        }
      ],
      "stateMutability": "nonpayable",
      "type": "function"
    },
    {
      "inputs": [
        {
          "internalType": "address",
          "name": "_sender",
          "type": "address"
        },
        {
          "internalType": "address",
          "name": "_reciever",
          "type": "address"
        },
        {
          "internalType": "uint256",
          "name": "amount",
          "type": "uint256"
        }
      ],
      "name": "transferFrom",
      "outputs": [
        {
          "internalType": "bool",
          "name": "",
          "type": "bool"
        }
      ],
      "stateMutability": "nonpayable",
      "type": "function"
    },
    {
      "inputs": [
        {
          "internalType": "address",
          "name": "newOwner",
          "type": "address"
        }
      ],
      "name": "transferOwnership",
      "outputs": [],
      "stateMutability": "nonpayable",
      "type": "function"
    }
  ],
  "bytecode": "0x6080604052610bb86005553480156200001757600080fd5b50604051620017ce380380620017ce83398181016040528101906200003d919062000285565b6200005d620000516200009760201b60201c565b6200009f60201b60201c565b81600390805190602001906200007592919062000163565b5080600490805190602001906200008e92919062000163565b50505062000429565b600033905090565b60008060009054906101000a900473ffffffffffffffffffffffffffffffffffffffff169050816000806101000a81548173ffffffffffffffffffffffffffffffffffffffff021916908373ffffffffffffffffffffffffffffffffffffffff1602179055508173ffffffffffffffffffffffffffffffffffffffff168173ffffffffffffffffffffffffffffffffffffffff167f8be0079c531659141344cd1fd0a4f28419497f9722a3daafe3b4186f6b6457e060405160405180910390a35050565b828054620001719062000395565b90600052602060002090601f016020900481019282620001955760008555620001e1565b82601f10620001b057805160ff1916838001178555620001e1565b82800160010185558215620001e1579182015b82811115620001e0578251825591602001919060010190620001c3565b5b509050620001f09190620001f4565b5090565b5b808211156200020f576000816000905550600101620001f5565b5090565b60006200022a62000224846200032c565b620002f8565b9050828152602081018484840111156200024357600080fd5b620002508482856200035f565b509392505050565b600082601f8301126200026a57600080fd5b81516200027c84826020860162000213565b91505092915050565b600080604083850312156200029957600080fd5b600083015167ffffffffffffffff811115620002b457600080fd5b620002c28582860162000258565b925050602083015167ffffffffffffffff811115620002e057600080fd5b620002ee8582860162000258565b9150509250929050565b6000604051905081810181811067ffffffffffffffff82111715620003225762000321620003fa565b5b8060405250919050565b600067ffffffffffffffff8211156200034a5762000349620003fa565b5b601f19601f8301169050602081019050919050565b60005b838110156200037f57808201518184015260208101905062000362565b838111156200038f576000848401525b50505050565b60006002820490506001821680620003ae57607f821691505b60208210811415620003c557620003c4620003cb565b5b50919050565b7f4e487b7100000000000000000000000000000000000000000000000000000000600052602260045260246000fd5b7f4e487b7100000000000000000000000000000000000000000000000000000000600052604160045260246000fd5b61139580620004396000396000f3fe608060405234801561001057600080fd5b50600436106100a95760003560e01c8063715018a611610071578063715018a61461017a5780638da5cb5b1461018457806395d89b41146101a2578063a9059cbb146101c0578063dd62ed3e146101f0578063f2fde38b14610220576100a9565b806306fdde03146100ae578063095ea7b3146100cc57806318160ddd146100fc57806323b872dd1461011a57806370a082311461014a575b600080fd5b6100b661023c565b6040516100c39190611052565b60405180910390f35b6100e660048036038101906100e19190610cc5565b6102ce565b6040516100f39190611037565b60405180910390f35b6101046102e5565b6040516101119190611154565b60405180910390f35b610134600480360381019061012f9190610c76565b6102ef565b6040516101419190611037565b60405180910390f35b610164600480360381019061015f9190610c11565b6103d8565b6040516101719190611154565b60405180910390f35b610182610421565b005b61018c6104a9565b6040516101999190610fe5565b60405180910390f35b6101aa6104d2565b6040516101b79190611052565b60405180910390f35b6101da60048036038101906101d59190610cc5565b610564565b6040516101e79190611037565b60405180910390f35b61020a60048036038101906102059190610c3a565b61057c565b6040516102179190611154565b60405180910390f35b61023a60048036038101906102359190610c11565b610603565b005b60606003805461024b90611290565b80601f016020809104026020016040519081016040528092919081815260200182805461027790611290565b80156102c45780601f10610299576101008083540402835291602001916102c4565b820191906000526020600020905b8154815290600101906020018083116102a757829003601f168201915b5050505050905090565b60006102db3384846106fb565b6001905092915050565b6000600554905090565b60006102fc84848461089c565b506000600160008673ffffffffffffffffffffffffffffffffffffffff1673ffffffffffffffffffffffffffffffffffffffff16815260200190815260200160002060003373ffffffffffffffffffffffffffffffffffffffff1673ffffffffffffffffffffffffffffffffffffffff168152602001908152602001600020549050828110156103c1576040517f08c379a00000000000000000000000000000000000000000000000000000000081526004016103b890611114565b60405180910390fd5b6103cc8533856106fb565b60019150509392505050565b6000600260008373ffffffffffffffffffffffffffffffffffffffff1673ffffffffffffffffffffffffffffffffffffffff168152602001908152602001600020549050919050565b610429610b1b565b73ffffffffffffffffffffffffffffffffffffffff166104476104a9565b73ffffffffffffffffffffffffffffffffffffffff161461049d576040517f08c379a0000000000000000000000000000000000000000000000000000000008152600401610494906110f4565b60405180910390fd5b6104a76000610b23565b565b60008060009054906101000a900473ffffffffffffffffffffffffffffffffffffffff16905090565b6060600480546104e190611290565b80601f016020809104026020016040519081016040528092919081815260200182805461050d90611290565b801561055a5780601f1061052f5761010080835404028352916020019161055a565b820191906000526020600020905b81548152906001019060200180831161053d57829003601f168201915b5050505050905090565b600061057133848461089c565b506001905092915050565b6000600160008473ffffffffffffffffffffffffffffffffffffffff1673ffffffffffffffffffffffffffffffffffffffff16815260200190815260200160002060008373ffffffffffffffffffffffffffffffffffffffff1673ffffffffffffffffffffffffffffffffffffffff16815260200190815260200160002054905092915050565b61060b610b1b565b73ffffffffffffffffffffffffffffffffffffffff166106296104a9565b73ffffffffffffffffffffffffffffffffffffffff161461067f576040517f08c379a0000000000000000000000000000000000000000000000000000000008152600401610676906110f4565b60405180910390fd5b600073ffffffffffffffffffffffffffffffffffffffff168173ffffffffffffffffffffffffffffffffffffffff1614156106ef576040517f08c379a00000000000000000000000000000000000000000000000000000000081526004016106e690611074565b60405180910390fd5b6106f881610b23565b50565b600073ffffffffffffffffffffffffffffffffffffffff168373ffffffffffffffffffffffffffffffffffffffff16141561076b576040517f08c379a0000000000000000000000000000000000000000000000000000000008152600401610762906110b4565b60405180910390fd5b600073ffffffffffffffffffffffffffffffffffffffff168273ffffffffffffffffffffffffffffffffffffffff1614156107db576040517f08c379a00000000000000000000000000000000000000000000000000000000081526004016107d290611094565b60405180910390fd5b80600160008573ffffffffffffffffffffffffffffffffffffffff1673ffffffffffffffffffffffffffffffffffffffff16815260200190815260200160002060008473ffffffffffffffffffffffffffffffffffffffff1673ffffffffffffffffffffffffffffffffffffffff168152602001908152602001600020819055507f6e11fb1b7f119e3f2fa29896ef5fdf8b8a2d0d4df6fe90ba8668e7d8b2ffa25e83838360405161088f93929190611000565b60405180910390a1505050565b60008073ffffffffffffffffffffffffffffffffffffffff168373ffffffffffffffffffffffffffffffffffffffff16141561090d576040517f08c379a0000000000000000000000000000000000000000000000000000000008152600401610904906110d4565b60405180910390fd5b81600260008673ffffffffffffffffffffffffffffffffffffffff1673ffffffffffffffffffffffffffffffffffffffff16815260200190815260200160002054101561098f576040517f08c379a000000000000000000000000000000000000000000000000000000000815260040161098690611134565b60405180910390fd5b81600260008673ffffffffffffffffffffffffffffffffffffffff1673ffffffffffffffffffffffffffffffffffffffff168152602001908152602001600020546109da91906111e1565b600260008673ffffffffffffffffffffffffffffffffffffffff1673ffffffffffffffffffffffffffffffffffffffff1681526020019081526020016000208190555081600260008573ffffffffffffffffffffffffffffffffffffffff1673ffffffffffffffffffffffffffffffffffffffff16815260200190815260200160002054610a68919061118b565b600260008573ffffffffffffffffffffffffffffffffffffffff1673ffffffffffffffffffffffffffffffffffffffff168152602001908152602001600020819055508273ffffffffffffffffffffffffffffffffffffffff168473ffffffffffffffffffffffffffffffffffffffff167fddf252ad1be2c89b69c2b068fc378daa952ba7f163c4a11628f55a4df523b3ef84604051610b089190611154565b60405180910390a3600190509392505050565b600033905090565b60008060009054906101000a900473ffffffffffffffffffffffffffffffffffffffff169050816000806101000a81548173ffffffffffffffffffffffffffffffffffffffff021916908373ffffffffffffffffffffffffffffffffffffffff1602179055508173ffffffffffffffffffffffffffffffffffffffff168173ffffffffffffffffffffffffffffffffffffffff167f8be0079c531659141344cd1fd0a4f28419497f9722a3daafe3b4186f6b6457e060405160405180910390a35050565b600081359050610bf681611331565b92915050565b600081359050610c0b81611348565b92915050565b600060208284031215610c2357600080fd5b6000610c3184828501610be7565b91505092915050565b60008060408385031215610c4d57600080fd5b6000610c5b85828601610be7565b9250506020610c6c85828601610be7565b9150509250929050565b600080600060608486031215610c8b57600080fd5b6000610c9986828701610be7565b9350506020610caa86828701610be7565b9250506040610cbb86828701610bfc565b9150509250925092565b60008060408385031215610cd857600080fd5b6000610ce685828601610be7565b9250506020610cf785828601610bfc565b9150509250929050565b610d0a81611215565b82525050565b610d1981611227565b82525050565b6000610d2a8261116f565b610d34818561117a565b9350610d4481856020860161125d565b610d4d81611320565b840191505092915050565b6000610d6560268361117a565b91507f4f776e61626c653a206e6577206f776e657220697320746865207a65726f206160008301527f64647265737300000000000000000000000000000000000000000000000000006020830152604082019050919050565b6000610dcb602f8361117a565b91507f4e756c6c20616464726573732063616e6e6f74207370656e64206f6e2062656860008301527f616c66206f6620616e6f746865722e00000000000000000000000000000000006020830152604082019050919050565b6000610e3160278361117a565b91507f43616e6e6f74207370656e64206f6e20626568616c66206f66206e756c6c206160008301527f6464726573732e000000000000000000000000000000000000000000000000006020830152604082019050919050565b6000610e9760388361117a565b91507f556e61626c6520746f2073656e64207a65726f20616464726573732e2043616c60008301527f6c206275726e2066756e6374696f6e20696e73746561642e00000000000000006020830152604082019050919050565b6000610efd60208361117a565b91507f4f776e61626c653a2063616c6c6572206973206e6f7420746865206f776e65726000830152602082019050919050565b6000610f3d60218361117a565b91507f556e61626c6520746f2073656e64206d6f7265207468616e20616c6c6f77656460008301527f2e000000000000000000000000000000000000000000000000000000000000006020830152604082019050919050565b6000610fa360138361117a565b91507f496e73756666696369656e742066756e64732e000000000000000000000000006000830152602082019050919050565b610fdf81611253565b82525050565b6000602082019050610ffa6000830184610d01565b92915050565b60006060820190506110156000830186610d01565b6110226020830185610d01565b61102f6040830184610fd6565b949350505050565b600060208201905061104c6000830184610d10565b92915050565b6000602082019050818103600083015261106c8184610d1f565b905092915050565b6000602082019050818103600083015261108d81610d58565b9050919050565b600060208201905081810360008301526110ad81610dbe565b9050919050565b600060208201905081810360008301526110cd81610e24565b9050919050565b600060208201905081810360008301526110ed81610e8a565b9050919050565b6000602082019050818103600083015261110d81610ef0565b9050919050565b6000602082019050818103600083015261112d81610f30565b9050919050565b6000602082019050818103600083015261114d81610f96565b9050919050565b60006020820190506111696000830184610fd6565b92915050565b600081519050919050565b600082825260208201905092915050565b600061119682611253565b91506111a183611253565b9250827fffffffffffffffffffffffffffffffffffffffffffffffffffffffffffffffff038211156111d6576111d56112c2565b5b828201905092915050565b60006111ec82611253565b91506111f783611253565b92508282101561120a576112096112c2565b5b828203905092915050565b600061122082611233565b9050919050565b60008115159050919050565b600073ffffffffffffffffffffffffffffffffffffffff82169050919050565b6000819050919050565b60005b8381101561127b578082015181840152602081019050611260565b8381111561128a576000848401525b50505050565b600060028204905060018216806112a857607f821691505b602082108114156112bc576112bb6112f1565b5b50919050565b7f4e487b7100000000000000000000000000000000000000000000000000000000600052601160045260246000fd5b7f4e487b7100000000000000000000000000000000000000000000000000000000600052602260045260246000fd5b6000601f19601f8301169050919050565b61133a81611215565b811461134557600080fd5b50565b61135181611253565b811461135c57600080fd5b5056fea26469706673582212207fd528a02c0c780d90ce525f3aeb6f32b7d6b0ca2ec720f2cfa0abea7064c25164736f6c63430008000033",
  "linkReferences": {},
  "deployedLinkReferences": {}
}