{
  "_format": "hh-sol-artifact-1",
  "contractName": "testErc20",
  "sourceName": "contracts/myTestErc20.sol",
  "abi": [
    {
      "inputs": [
        {
          "internalType": "string",
          "name": "n",
          "type": "string"
        },
        {
          "internalType": "string",
          "name": "sym",
          "type": "string"
        }
      ],
      "stateMutability": "nonpayable",
      "type": "constructor"
    },
    {
      "anonymous": false,
      "inputs": [
        {
          "indexed": true,
          "internalType": "address",
          "name": "owner",
          "type": "address"
        },
        {
          "indexed": true,
          "internalType": "address",
          "name": "spender",
          "type": "address"
        },
        {
          "indexed": false,
          "internalType": "uint256",
          "name": "value",
          "type": "uint256"
        }
      ],
      "name": "Approval",
      "type": "event"
    },
    {
      "anonymous": false,
      "inputs": [
        {
          "indexed": false,
          "internalType": "address",
          "name": "owner",
          "type": "address"
        },
        {
          "indexed": false,
          "internalType": "address",
          "name": "sender",
          "type": "address"
        },
        {
          "indexed": false,
          "internalType": "uint256",
          "name": "value",
          "type": "uint256"
        }
      ],
      "name": "Approve",
      "type": "event"
    },
    {
      "anonymous": false,
      "inputs": [
        {
          "indexed": true,
          "internalType": "address",
          "name": "previousOwner",
          "type": "address"
        },
        {
          "indexed": true,
          "internalType": "address",
          "name": "newOwner",
          "type": "address"
        }
      ],
      "name": "OwnershipTransferred",
      "type": "event"
    },
    {
      "anonymous": false,
      "inputs": [
        {
          "indexed": true,
          "internalType": "address",
          "name": "from",
          "type": "address"
        },
        {
          "indexed": true,
          "internalType": "address",
          "name": "to",
          "type": "address"
        },
        {
          "indexed": false,
          "internalType": "uint256",
          "name": "value",
          "type": "uint256"
        }
      ],
      "name": "Transfer",
      "type": "event"
    },
    {
      "inputs": [
        {
          "internalType": "address",
          "name": "owningAcc",
          "type": "address"
        },
        {
          "internalType": "address",
          "name": "spendingAcc",
          "type": "address"
        }
      ],
      "name": "allowance",
      "outputs": [
        {
          "internalType": "uint256",
          "name": "",
          "type": "uint256"
        }
      ],
      "stateMutability": "view",
      "type": "function"
    },
    {
      "inputs": [
        {
          "internalType": "address",
          "name": "spender",
          "type": "address"
        },
        {
          "internalType": "uint256",
          "name": "amount",
          "type": "uint256"
        }
      ],
      "name": "approve",
      "outputs": [
        {
          "internalType": "bool",
          "name": "",
          "type": "bool"
        }
      ],
      "stateMutability": "nonpayable",
      "type": "function"
    },
    {
      "inputs": [
        {
          "internalType": "address",
          "name": "_address",
          "type": "address"
        }
      ],
      "name": "balanceOf",
      "outputs": [
        {
          "internalType": "uint256",
          "name": "",
          "type": "uint256"
        }
      ],
      "stateMutability": "view",
      "type": "function"
    },
    {
      "inputs": [],
      "name": "name",
      "outputs": [
        {
          "internalType": "string",
          "name": "",
          "type": "string"
        }
      ],
      "stateMutability": "view",
      "type": "function"
    },
    {
      "inputs": [],
      "name": "owner",
      "outputs": [
        {
          "internalType": "address",
          "name": "",
          "type": "address"
        }
      ],
      "stateMutability": "view",
      "type": "function"
    },
    {
      "inputs": [],
      "name": "renounceOwnership",
      "outputs": [],
      "stateMutability": "nonpayable",
      "type": "function"
    },
    {
      "inputs": [],
      "name": "symbol",
      "outputs": [
        {
          "internalType": "string",
          "name": "",
          "type": "string"
        }
      ],
      "stateMutability": "view",
      "type": "function"
    },
    {
      "inputs": [],
      "name": "totalSupply",
      "outputs": [
        {
          "internalType": "uint256",
          "name": "",
          "type": "uint256"
        }
      ],
      "stateMutability": "view",
      "type": "function"
    },
    {
      "inputs": [
        {
          "internalType": "address",
          "name": "to",
          "type": "address"
        },
        {
          "internalType": "uint256",
          "name": "value",
          "type": "uint256"
        }
      ],
      "name": "transfer",
      "outputs": [
        {
          "internalType": "bool",
          "name": "",
          "type": "bool"
        }
      ],
      "stateMutability": "nonpayable",
      "type": "function"
    },
    {
      "inputs": [
        {
          "internalType": "address",
          "name": "_sender",
          "type": "address"
        },
        {
          "internalType": "address",
          "name": "_reciever",
          "type": "address"
        },
        {
          "internalType": "uint256",
          "name": "amount",
          "type": "uint256"
        }
      ],
      "name": "transferFrom",
      "outputs": [
        {
          "internalType": "bool",
          "name": "",
          "type": "bool"
        }
      ],
      "stateMutability": "nonpayable",
      "type": "function"
    },
    {
      "inputs": [
        {
          "internalType": "address",
          "name": "newOwner",
          "type": "address"
        }
      ],
      "name": "transferOwnership",
      "outputs": [],
      "stateMutability": "nonpayable",
      "type": "function"
    }
  ],
  "bytecode": "0x6080604052610bb86006553480156200001757600080fd5b50604051620018783803806200187883398181016040528101906200003d91906200032e565b6200005d620000516200014060201b60201c565b6200014860201b60201c565b8160049080519060200190620000759291906200020c565b5080600590805190602001906200008e9291906200020c565b5033600360006101000a81548173ffffffffffffffffffffffffffffffffffffffff021916908373ffffffffffffffffffffffffffffffffffffffff16021790555060065460026000600360009054906101000a900473ffffffffffffffffffffffffffffffffffffffff1673ffffffffffffffffffffffffffffffffffffffff1673ffffffffffffffffffffffffffffffffffffffff168152602001908152602001600020819055505050620004d2565b600033905090565b60008060009054906101000a900473ffffffffffffffffffffffffffffffffffffffff169050816000806101000a81548173ffffffffffffffffffffffffffffffffffffffff021916908373ffffffffffffffffffffffffffffffffffffffff1602179055508173ffffffffffffffffffffffffffffffffffffffff168173ffffffffffffffffffffffffffffffffffffffff167f8be0079c531659141344cd1fd0a4f28419497f9722a3daafe3b4186f6b6457e060405160405180910390a35050565b8280546200021a906200043e565b90600052602060002090601f0160209004810192826200023e57600085556200028a565b82601f106200025957805160ff19168380011785556200028a565b828001600101855582156200028a579182015b82811115620002895782518255916020019190600101906200026c565b5b5090506200029991906200029d565b5090565b5b80821115620002b85760008160009055506001016200029e565b5090565b6000620002d3620002cd84620003d5565b620003a1565b905082815260208101848484011115620002ec57600080fd5b620002f984828562000408565b509392505050565b600082601f8301126200031357600080fd5b815162000325848260208601620002bc565b91505092915050565b600080604083850312156200034257600080fd5b600083015167ffffffffffffffff8111156200035d57600080fd5b6200036b8582860162000301565b925050602083015167ffffffffffffffff8111156200038957600080fd5b620003978582860162000301565b9150509250929050565b6000604051905081810181811067ffffffffffffffff82111715620003cb57620003ca620004a3565b5b8060405250919050565b600067ffffffffffffffff821115620003f357620003f2620004a3565b5b601f19601f8301169050602081019050919050565b60005b83811015620004285780820151818401526020810190506200040b565b8381111562000438576000848401525b50505050565b600060028204905060018216806200045757607f821691505b602082108114156200046e576200046d62000474565b5b50919050565b7f4e487b7100000000000000000000000000000000000000000000000000000000600052602260045260246000fd5b7f4e487b7100000000000000000000000000000000000000000000000000000000600052604160045260246000fd5b61139680620004e26000396000f3fe608060405234801561001057600080fd5b50600436106100a95760003560e01c8063715018a611610071578063715018a61461017a5780638da5cb5b1461018457806395d89b41146101a2578063a9059cbb146101c0578063dd62ed3e146101f0578063f2fde38b14610220576100a9565b806306fdde03146100ae578063095ea7b3146100cc57806318160ddd146100fc57806323b872dd1461011a57806370a082311461014a575b600080fd5b6100b661023c565b6040516100c39190611053565b60405180910390f35b6100e660048036038101906100e19190610cc6565b6102ce565b6040516100f39190611038565b60405180910390f35b6101046102e5565b6040516101119190611155565b60405180910390f35b610134600480360381019061012f9190610c77565b6102ef565b6040516101419190611038565b60405180910390f35b610164600480360381019061015f9190610c12565b6103d8565b6040516101719190611155565b60405180910390f35b610182610421565b005b61018c6104a9565b6040516101999190610fe6565b60405180910390f35b6101aa6104d3565b6040516101b79190611053565b60405180910390f35b6101da60048036038101906101d59190610cc6565b610565565b6040516101e79190611038565b60405180910390f35b61020a60048036038101906102059190610c3b565b61057d565b6040516102179190611155565b60405180910390f35b61023a60048036038101906102359190610c12565b610604565b005b60606004805461024b90611291565b80601f016020809104026020016040519081016040528092919081815260200182805461027790611291565b80156102c45780601f10610299576101008083540402835291602001916102c4565b820191906000526020600020905b8154815290600101906020018083116102a757829003601f168201915b5050505050905090565b60006102db3384846106fc565b6001905092915050565b6000600654905090565b60006102fc84848461089d565b506000600160008673ffffffffffffffffffffffffffffffffffffffff1673ffffffffffffffffffffffffffffffffffffffff16815260200190815260200160002060003373ffffffffffffffffffffffffffffffffffffffff1673ffffffffffffffffffffffffffffffffffffffff168152602001908152602001600020549050828110156103c1576040517f08c379a00000000000000000000000000000000000000000000000000000000081526004016103b890611115565b60405180910390fd5b6103cc8533856106fc565b60019150509392505050565b6000600260008373ffffffffffffffffffffffffffffffffffffffff1673ffffffffffffffffffffffffffffffffffffffff168152602001908152602001600020549050919050565b610429610b1c565b73ffffffffffffffffffffffffffffffffffffffff166104476104a9565b73ffffffffffffffffffffffffffffffffffffffff161461049d576040517f08c379a0000000000000000000000000000000000000000000000000000000008152600401610494906110f5565b60405180910390fd5b6104a76000610b24565b565b6000600360009054906101000a900473ffffffffffffffffffffffffffffffffffffffff16905090565b6060600580546104e290611291565b80601f016020809104026020016040519081016040528092919081815260200182805461050e90611291565b801561055b5780601f106105305761010080835404028352916020019161055b565b820191906000526020600020905b81548152906001019060200180831161053e57829003601f168201915b5050505050905090565b600061057233848461089d565b506001905092915050565b6000600160008473ffffffffffffffffffffffffffffffffffffffff1673ffffffffffffffffffffffffffffffffffffffff16815260200190815260200160002060008373ffffffffffffffffffffffffffffffffffffffff1673ffffffffffffffffffffffffffffffffffffffff16815260200190815260200160002054905092915050565b61060c610b1c565b73ffffffffffffffffffffffffffffffffffffffff1661062a6104a9565b73ffffffffffffffffffffffffffffffffffffffff1614610680576040517f08c379a0000000000000000000000000000000000000000000000000000000008152600401610677906110f5565b60405180910390fd5b600073ffffffffffffffffffffffffffffffffffffffff168173ffffffffffffffffffffffffffffffffffffffff1614156106f0576040517f08c379a00000000000000000000000000000000000000000000000000000000081526004016106e790611075565b60405180910390fd5b6106f981610b24565b50565b600073ffffffffffffffffffffffffffffffffffffffff168373ffffffffffffffffffffffffffffffffffffffff16141561076c576040517f08c379a0000000000000000000000000000000000000000000000000000000008152600401610763906110b5565b60405180910390fd5b600073ffffffffffffffffffffffffffffffffffffffff168273ffffffffffffffffffffffffffffffffffffffff1614156107dc576040517f08c379a00000000000000000000000000000000000000000000000000000000081526004016107d390611095565b60405180910390fd5b80600160008573ffffffffffffffffffffffffffffffffffffffff1673ffffffffffffffffffffffffffffffffffffffff16815260200190815260200160002060008473ffffffffffffffffffffffffffffffffffffffff1673ffffffffffffffffffffffffffffffffffffffff168152602001908152602001600020819055507f6e11fb1b7f119e3f2fa29896ef5fdf8b8a2d0d4df6fe90ba8668e7d8b2ffa25e83838360405161089093929190611001565b60405180910390a1505050565b60008073ffffffffffffffffffffffffffffffffffffffff168373ffffffffffffffffffffffffffffffffffffffff16141561090e576040517f08c379a0000000000000000000000000000000000000000000000000000000008152600401610905906110d5565b60405180910390fd5b81600260008673ffffffffffffffffffffffffffffffffffffffff1673ffffffffffffffffffffffffffffffffffffffff168152602001908152602001600020541015610990576040517f08c379a000000000000000000000000000000000000000000000000000000000815260040161098790611135565b60405180910390fd5b81600260008673ffffffffffffffffffffffffffffffffffffffff1673ffffffffffffffffffffffffffffffffffffffff168152602001908152602001600020546109db91906111e2565b600260008673ffffffffffffffffffffffffffffffffffffffff1673ffffffffffffffffffffffffffffffffffffffff1681526020019081526020016000208190555081600260008573ffffffffffffffffffffffffffffffffffffffff1673ffffffffffffffffffffffffffffffffffffffff16815260200190815260200160002054610a69919061118c565b600260008573ffffffffffffffffffffffffffffffffffffffff1673ffffffffffffffffffffffffffffffffffffffff168152602001908152602001600020819055508273ffffffffffffffffffffffffffffffffffffffff168473ffffffffffffffffffffffffffffffffffffffff167fddf252ad1be2c89b69c2b068fc378daa952ba7f163c4a11628f55a4df523b3ef84604051610b099190611155565b60405180910390a3600190509392505050565b600033905090565b60008060009054906101000a900473ffffffffffffffffffffffffffffffffffffffff169050816000806101000a81548173ffffffffffffffffffffffffffffffffffffffff021916908373ffffffffffffffffffffffffffffffffffffffff1602179055508173ffffffffffffffffffffffffffffffffffffffff168173ffffffffffffffffffffffffffffffffffffffff167f8be0079c531659141344cd1fd0a4f28419497f9722a3daafe3b4186f6b6457e060405160405180910390a35050565b600081359050610bf781611332565b92915050565b600081359050610c0c81611349565b92915050565b600060208284031215610c2457600080fd5b6000610c3284828501610be8565b91505092915050565b60008060408385031215610c4e57600080fd5b6000610c5c85828601610be8565b9250506020610c6d85828601610be8565b9150509250929050565b600080600060608486031215610c8c57600080fd5b6000610c9a86828701610be8565b9350506020610cab86828701610be8565b9250506040610cbc86828701610bfd565b9150509250925092565b60008060408385031215610cd957600080fd5b6000610ce785828601610be8565b9250506020610cf885828601610bfd565b9150509250929050565b610d0b81611216565b82525050565b610d1a81611228565b82525050565b6000610d2b82611170565b610d35818561117b565b9350610d4581856020860161125e565b610d4e81611321565b840191505092915050565b6000610d6660268361117b565b91507f4f776e61626c653a206e6577206f776e657220697320746865207a65726f206160008301527f64647265737300000000000000000000000000000000000000000000000000006020830152604082019050919050565b6000610dcc602f8361117b565b91507f4e756c6c20616464726573732063616e6e6f74207370656e64206f6e2062656860008301527f616c66206f6620616e6f746865722e00000000000000000000000000000000006020830152604082019050919050565b6000610e3260278361117b565b91507f43616e6e6f74207370656e64206f6e20626568616c66206f66206e756c6c206160008301527f6464726573732e000000000000000000000000000000000000000000000000006020830152604082019050919050565b6000610e9860388361117b565b91507f556e61626c6520746f2073656e64207a65726f20616464726573732e2043616c60008301527f6c206275726e2066756e6374696f6e20696e73746561642e00000000000000006020830152604082019050919050565b6000610efe60208361117b565b91507f4f776e61626c653a2063616c6c6572206973206e6f7420746865206f776e65726000830152602082019050919050565b6000610f3e60218361117b565b91507f556e61626c6520746f2073656e64206d6f7265207468616e20616c6c6f77656460008301527f2e000000000000000000000000000000000000000000000000000000000000006020830152604082019050919050565b6000610fa460138361117b565b91507f496e73756666696369656e742066756e64732e000000000000000000000000006000830152602082019050919050565b610fe081611254565b82525050565b6000602082019050610ffb6000830184610d02565b92915050565b60006060820190506110166000830186610d02565b6110236020830185610d02565b6110306040830184610fd7565b949350505050565b600060208201905061104d6000830184610d11565b92915050565b6000602082019050818103600083015261106d8184610d20565b905092915050565b6000602082019050818103600083015261108e81610d59565b9050919050565b600060208201905081810360008301526110ae81610dbf565b9050919050565b600060208201905081810360008301526110ce81610e25565b9050919050565b600060208201905081810360008301526110ee81610e8b565b9050919050565b6000602082019050818103600083015261110e81610ef1565b9050919050565b6000602082019050818103600083015261112e81610f31565b9050919050565b6000602082019050818103600083015261114e81610f97565b9050919050565b600060208201905061116a6000830184610fd7565b92915050565b600081519050919050565b600082825260208201905092915050565b600061119782611254565b91506111a283611254565b9250827fffffffffffffffffffffffffffffffffffffffffffffffffffffffffffffffff038211156111d7576111d66112c3565b5b828201905092915050565b60006111ed82611254565b91506111f883611254565b92508282101561120b5761120a6112c3565b5b828203905092915050565b600061122182611234565b9050919050565b60008115159050919050565b600073ffffffffffffffffffffffffffffffffffffffff82169050919050565b6000819050919050565b60005b8381101561127c578082015181840152602081019050611261565b8381111561128b576000848401525b50505050565b600060028204905060018216806112a957607f821691505b602082108114156112bd576112bc6112f2565b5b50919050565b7f4e487b7100000000000000000000000000000000000000000000000000000000600052601160045260246000fd5b7f4e487b7100000000000000000000000000000000000000000000000000000000600052602260045260246000fd5b6000601f19601f8301169050919050565b61133b81611216565b811461134657600080fd5b50565b61135281611254565b811461135d57600080fd5b5056fea2646970667358221220ffa175aa3dd6c149cd7cb02388e77569de543b2b168a3dbfa19cecec18f1212164736f6c63430008000033",
  "linkReferences": {},
  "deployedLinkReferences": {}
}